{
  "transactions": [
    {
      "hash": "0xc361fae86ead1849185599332c20ec5be88396ffe4d75d093b0e8ada3f7b0a1d",
      "transactionType": "CALL",
      "contractName": "dUSD",
      "contractAddress": "0xb83ac15d3c6c3be8c20e662d09c11b1bee8152e9",
      "function": "approve(address,uint256)",
      "arguments": [
        "0x98a8255EBe17504AA2547ecCb00F40a288BAa365",
        "100000000000000000000"
      ],
      "transaction": {
        "from": "0x13ffba08c4c6636062c4fd812a97a67eafc2fe2b",
        "to": "0xb83ac15d3c6c3be8c20e662d09c11b1bee8152e9",
        "gas": "0x2642d",
        "value": "0x0",
        "input": "0x095ea7b300000000000000000000000098a8255ebe17504aa2547eccb00f40a288baa3650000000000000000000000000000000000000000000000056bc75e2d63100000",
        "nonce": "0x338",
        "chainId": "0x66eee"
      },
      "additionalContracts": [],
      "isFixedGasLimit": false
    },
    {
      "hash": "0xbce7f0f8a95a635d58fd186b38f40ef2754e8350d4b0bf2d07353e4ed4d9c088",
      "transactionType": "CALL",
      "contractName": null,
      "contractAddress": "0x98a8255ebe17504aa2547eccb00f40a288baa365",
      "function": "mintAsset(uint256,string)",
      "arguments": [
        "100000000000000000000",
        "SPX 500"
      ],
      "transaction": {
        "from": "0x13ffba08c4c6636062c4fd812a97a67eafc2fe2b",
        "to": "0x98a8255ebe17504aa2547eccb00f40a288baa365",
        "gas": "0x166d4",
        "value": "0x0",
        "input": "0x53af9f0a0000000000000000000000000000000000000000000000056bc75e2d63100000000000000000000000000000000000000000000000000000000000000000004000000000000000000000000000000000000000000000000000000000000000075350582035303000000000000000000000000000000000000000000000000000",
        "nonce": "0x339",
        "chainId": "0x66eee"
      },
      "additionalContracts": [],
      "isFixedGasLimit": false
    }
  ],
  "receipts": [
    {
      "status": "0x1",
      "cumulativeGasUsed": "0x3e061",
      "logs": [
        {
          "address": "0xb83ac15d3c6c3be8c20e662d09c11b1bee8152e9",
          "topics": [
            "0x8c5be1e5ebec7d5bd14f71427d1e84f3dd0314c0f7b2291e5b200ac8c7c3b925",
            "0x00000000000000000000000013ffba08c4c6636062c4fd812a97a67eafc2fe2b",
            "0x00000000000000000000000098a8255ebe17504aa2547eccb00f40a288baa365"
          ],
          "data": "0x0000000000000000000000000000000000000000000000056bc75e2d63100000",
          "blockHash": "0x5c9922b52d9aae81bae3a5c9a19a4f5d507085d3379cd7e07edaeb412550639f",
          "blockNumber": "0x812fd39",
          "transactionHash": "0xc361fae86ead1849185599332c20ec5be88396ffe4d75d093b0e8ada3f7b0a1d",
          "transactionIndex": "0x2",
          "logIndex": "0x3",
          "removed": false
        }
      ],
      "logsBloom": "0x00000000000000000000000000000000000000000000000040000000000000000000000000000000000000000000002000000000000000000000000000200000000000000000000000000000000000000000000000000000000000000000000000000000000000000000000000000000000000000000000000200020000000000000000000000000000000000000000000000000000000000000000000000000020000000000100000008000000000000000000000000000040000000000000000000000000000000000000002000000000000000000000000000000000000000010004000000000000000000000000000000000000000000000000000000000",
      "type": "0x2",
      "transactionHash": "0xc361fae86ead1849185599332c20ec5be88396ffe4d75d093b0e8ada3f7b0a1d",
      "transactionIndex": "0x2",
      "blockHash": "0x5c9922b52d9aae81bae3a5c9a19a4f5d507085d3379cd7e07edaeb412550639f",
      "blockNumber": "0x812fd39",
      "gasUsed": "0x1956a",
      "effectiveGasPrice": "0x5f5e100",
      "from": "0x13ffba08c4c6636062c4fd812a97a67eafc2fe2b",
      "to": "0xb83ac15d3c6c3be8c20e662d09c11b1bee8152e9",
      "contractAddress": null,
      "gasUsedForL1": "0xe028",
      "l1BlockNumber": "0x79a48c",
      "timeboosted": false
    },
    {
      "status": "0x1",
      "cumulativeGasUsed": "0x2237b",
      "logs": [
        {
          "address": "0xb83ac15d3c6c3be8c20e662d09c11b1bee8152e9",
          "topics": [
            "0xddf252ad1be2c89b69c2b068fc378daa952ba7f163c4a11628f55a4df523b3ef",
            "0x00000000000000000000000013ffba08c4c6636062c4fd812a97a67eafc2fe2b",
            "0x00000000000000000000000098a8255ebe17504aa2547eccb00f40a288baa365"
          ],
          "data": "0x0000000000000000000000000000000000000000000000056bc75e2d63100000",
          "blockHash": "0x719293a602e5a2390614304e4b4ebdf9732b005ba4fa3554f394a8ce704a7180",
          "blockNumber": "0x812fd3d",
          "transactionHash": "0xbce7f0f8a95a635d58fd186b38f40ef2754e8350d4b0bf2d07353e4ed4d9c088",
          "transactionIndex": "0x1",
          "logIndex": "0x0",
          "removed": false
        }
      ],
      "logsBloom": "0x00000000000000000000000000000000000000000000000040000000000000000000000000000000000000000000002000000000000000000000000000000000000000000000000000000008000000000000000000000000000000000000000000000000000000000000000000000000000000000000000000200030000000000000000000000000000000000000000000000000000000000000000000000000000000000000100000008000000000000000000000000000040000000000000000000002000000000000000002000000000000000000000000000000000000000000004000000000000000000000000000000000000000000000000000000000",
      "type": "0x2",
      "transactionHash": "0xbce7f0f8a95a635d58fd186b38f40ef2754e8350d4b0bf2d07353e4ed4d9c088",
      "transactionIndex": "0x1",
      "blockHash": "0x719293a602e5a2390614304e4b4ebdf9732b005ba4fa3554f394a8ce704a7180",
      "blockNumber": "0x812fd3d",
      "gasUsed": "0x2237b",
      "effectiveGasPrice": "0x5f5e100",
      "from": "0x13ffba08c4c6636062c4fd812a97a67eafc2fe2b",
      "to": "0x98a8255ebe17504aa2547eccb00f40a288baa365",
      "contractAddress": null,
      "gasUsedForL1": "0x12e20",
      "l1BlockNumber": "0x79a48d",
      "timeboosted": false
    }
  ],
  "libraries": [],
  "pending": [],
  "returns": {},
  "timestamp": 1742831179,
  "chain": 421614,
  "commit": "6ac326c"
}